:020000040000FA
:08000000803102288731F12F45
:1006AC00080032001B1A08000000572BFE00120035
:1006BC001E00FE0B5D2B003421001708C1392038B9
:1006CC0097008331562308002000AE01AE0A2E0895
:1006DC00AD002D08FA002C0886319E26080018342F
:1006EC007934003400340434003400344834E834B1
:1006FC000134003400342830840088308500013FF8
:10070C008A00003F0A008331B230840088308500B3
:10071C00013F8A00003F0A0083311030840088308A
:10072C008500013F8A00003F0A0083312000AF01A1
:10073C00AF0A1230840088308500013F8A00003FE8
:10074C000A0083319B300032890BA92B2000AF01AA
:10075C00AF0A1430840088308500013F8A00003FC6
:10076C000A0083319C2B7008840071088500003FBF
:10077C00F700013FF8000130F3007108F500700834
:10078C00F40002307407840075080318750A85009C
:10079C000008890AD22BF335890BD12B7308F6008C
:1007AC007608F9007203031DE62B7908F30077082D
:1007BC00003E86000130783D8700730881040800F4
:1007CC007208031D08007909F3007708003E8600C3
:1007DC000130783D87007308810508000530200042
:1007EC00B0003008AC001830840088308500013F20
:1007FC008A00003F0A0084312000B10131082F0229
:10080C00031C1C2CFA01013086319E268331813069
:10081C00890B0E2CFA01FA0A013086319E2683319F
:10082C0001302000B0003008B107042CB1013108B0
:10083C002F02031C352CFA01023086319E2683319F
:10084C008130890B272CFA01FA0A023086319E2658
:10085C00833101302000B0003008B1071D2CB101EC
:10086C0031082F02031C4E2CFA01033086319E26D0
:10087C0083318130890B402CFA01FA0A033086311E
:10088C009E26833101302000B0003008B107362C91
:10089C00B10131082F02031C0800FA010430863123
:1008AC009E2683318130890B592CFA01FA0A0430C7
:1008BC0086319E26833101302000B0003008B1070C
:1008CC004F2C05302000B0003008AC0018308400EC
:1008DC0088308500013F8A00003F0A0084312000E7
:1008EC00B10131082F02031C8F2CFA010430863120
:1008FC009E2684318130890B812CFA01FA0A04304E
:10090C0086319E26843101302000B0003008B107BA
:10091C00772CB10131082F02031CA82CFA010330EB
:10092C0086319E2684318130890B9A2CFA01FA0A81
:10093C00033086319E26843101302000B00030080F
:10094C00B107902CB10131082F02031CC12CFA0104
:10095C00023086319E2684318130890BB32CFA010A
:10096C00FA0A023086319E26843101302000B00014
:10097C003008B107A92CB10131082F02031C080063
:10098C00FA01013086319E2684318130890BCC2CC2
:10099C00FA01FA0A013086319E268431013020009A
:1009AC00B0003008B107C22C20003208031D08002B
:1009BC00A530F0008830F100F2010030840088305E
:1009CC008500013F8A00003F0A0084319E30F00010
:1009DC008830F100F2010030840088308500013F3E
:1009EC008A00003F0A0084319730F0008830F10013
:1009FC00F2010030840088308500013F8A00003FFE
:100A0C000A0085319030F0008830F100F20100309E
:100A1C00840088308500013F8A00003F0A00853140
:100A2C008930F0008830F100F20100308400883009
:100A3C008500013F8A00003F0A0085318230F000BA
:100A4C008830F100F2010030840088308500013FCD
:100A5C008A00003F0A0085317B30F0008830F100BD
:100A6C00F2010030840088308500013F8A00003F8D
:100A7C000A0085317430F0008830F100F20100304A
:100A8C00840088308500013F8A00003F0A008531D0
:100A9C006D30F0008830F100F201003084008830B5
:100AAC008500013F8A00003F0A008531FA010130C0
:100ABC0086319E268431FA01023086319E2684319D
:100ACC00FA01033086319E268431FA0104308631D6
:100ADC009E262000B201B20A08007008840071083A
:100AEC008500003FF700013FF8000130F30071086A
:100AFC00F5007008F40002307407840075080318C0
:100B0C00750A85000008890A8C2DF335890B8B2D0D
:100B1C007308F6007608F90002307206031DBF2D2B
:100B2C007909F3007708803E86000130783D870014
:100B3C00730881057908F3007708803E8600003041
:100B4C00783D8700730881047909F3007708003E2B
:100B5C0086000230783D8700730881057909F3001F
:100B6C007708803E86000230783D87007308810547
:100B7C00080003307206031DEC2D7909F300770889
:100B8C00803E86000130783D870073088105790826
:100B9C00F3007708803E86000030783D87007308AC
:100BAC0081047908F3007708003E86000230783D16
:100BBC008700730881047909F3007708803E86006A
:100BCC000230783D870073088105080004307206F6
:100BDC00031D192E7909F3007708803E8600013039
:100BEC00783D8700730881057908F3007708803E0B
:100BFC0086000030783D8700730881047909F30082
:100C0C007708003E86000230783D87007308810526
:100C1C007908F3007708803E86000230783D870023
:100C2C0073088104080005307206031D462E7908EE
:100C3C00F3007708803E86000130783D870073080A
:100C4C0081047908F3007708803E86000030783DF7
:100C5C008700730881047909F3007708003E860049
:100C6C000230783D8700730881057909F300770815
:100C7C00803E86000230783D8700730881050800AD
:100C8C007208031D722E7909F3007708803E8600E6
:100C9C000130783D8700730881057909F3007708E6
:100CAC00803E86000030783D870073088105790905
:100CBC00F3007708003E86000230783D8700730809
:100CCC0081057909F3007708803E86000230783D73
:100CDC0087007308810508007203031D0800790959
:100CEC00F3007708803E86000130783D870073085A
:100CFC0081057909F3007708803E86000030783D45
:100D0C008700730881057909F3007708003E860097
:100D1C000230783D8700730881057908F300770865
:100D2C00803E86000230783D8700730881040800FD
:100D3C00FD00D72F6D30F0008830F1007A08FB00F1
:100D4C007B08F2000230840088308500013F8A0065
:100D5C00003F0A00863108007430F0008830F10042
:100D6C007A08FB007B08F200023084008830850092
:100D7C00013F8A00003F0A0086317B30F00088304A
:100D8C00F1007A08FB007B08F20002308400883006
:100D9C008500013F8A00003F0A008631080082303E
:100DAC00F0008830F1007A08FB007B08F20002307A
:100DBC00840088308500013F8A00003F0A0086319C
:100DCC008930F0008830F1007A08FB007B08F200D3
:100DDC000230840088308500013F8A00003F0A0001
:100DEC00863108009030F0008830F1007A08FB0062
:100DFC007B08F2000230840088308500013F8A00B5
:100E0C00003F0A0087319730F0008830F1007A08F3
:100E1C00FB007B08F2000230840088308500013F23
:100E2C008A00003F0A0087319E30F0008830F100C4
:100E3C007A08FB007B08F2000230840088308500C1
:100E4C00013F8A00003F0A008731A530F00088304E
:100E5C00F1007A08FB007B08F20002308400883035
:100E6C008500013F8A00003F0A0087310800A53049
:100E7C00F0008830F1007A08FB007B08F2000230A9
:100E8C00840088308500013F8A00003F0A008731CA
:100E9C009E30F0008830F1007A08FB007B08F200ED
:100EAC000230840088308500013F8A00003F0A0030
:100EBC0087319730F0008830F1007A08FB007B080E
:100ECC00F2000230840088308500013F8A00003F28
:100EDC000A0087319030F0008830F1007A08FB006E
:100EEC007B08F2000230840088308500013F8A00C4
:100EFC00003F0A0087318930F0008830F1007A0811
:100F0C00FB007B08F2000230840088308500013F32
:100F1C008A00003F0A0087318230F0008830F100EF
:100F2C007A08FB007B08F2000230840088308500D0
:100F3C00013F8A00003F0A0087317B30F000883087
:100F4C00F1007A08FB007B08F20002308400883044
:100F5C008500013F8A00003F0A0087317430F000A1
:100F6C008830F1007A08FB007B08F2000230840024
:100F7C0088308500013F8A00003F0A0087316D30C0
:100F8C00F0008830F1007A08FB007B08F200023098
:100F9C00840088308500013F8A00003F0A008731B9
:100FAC0008007D08FB00FC017C08003A0319DF2FC8
:100FBC00F02F7B08013A0319F82E033A0319D52EAA
:100FCC00013A0319B22E073A0319A02E013A03195C
:100FDC003D2FF02F080075308400833085002030C1
:100FEC008600003087000C3083315C23B201200076
:100FFC008331812B73340534B93403340034003419
:10100C000034003400340034003400340034003434
:10101C0000340034DA34043467340434F4340334E4
:10102C00003400346A3403340034003400340034A7
:10103C000034003400340034003400340034003404
:10104C00003400345734033400340034003400349A
:10105C000E34003404341434A4340E3414340E34EA
:10106C00003404341434A4340E3414340E340034E8
:10107C0003341334A3340E3413340E3400340234DA
:10108C001234A2340E3412340E34003401341134C0
:10109C00A1340E3411340E34003401341134A13423
:1010AC000E3411340C3400340534053495340E34BC
:1010BC0005340C3400340434043494340E340434C5
:1010CC000C3400340234023492340E3402340E34B4
:1010DC00003405341534A5340E3415340E34003474
:1010EC0004341434A4340E3414340E340034033465
:1010FC001334A3340E3413340E340034023412344B
:10110C00A2340E3412340E34003401341134A134B0
:10111C000E3411340E34003400341034A0340E3438
:10112C0010340C3400340534053495340E34053445
:10113C000C3400340434043494340E3404340C343D
:10114C0000340234023492340E340234003400344D
:10115C000034003400340034623403345634033425
:04116C000034003417
:020000040001F9
:08000E00CCFF3FFFFFDFFCFF08
:00000001FF
